:100000000C942A000C943F000C943F000C943F0089
:100010000C943F000C943F000C943F000C943F0064
:100020000C943F000C943F000C943F000C943F0054
:100030000C943F000C943F000C943F000C943F0044
:100040000C943F000C943F000C943F000C943F0034
:100050000C943F0011241FBECFE5D4E0DEBFCDBF1E
:1000600010E0A0E6B0E0E6EFF2E002C005900D92ED
:10007000A236B107D9F70E9441000C9479010C9483
:10008000000008951F93182F88E061E00E94BB00D4
:100090001430A1F1153050F41130D9F01130B0F016
:1000A000123011F1133009F058C021C0173099F106
:1000B000183030F4153029F1163009F04EC028C040
:1000C0001830C1F1193009F048C037C081E060E054
:1000D00002C081E061E00E94BB0082E060E00E941B
:1000E000BB0083E060E021C081E060E002C081E00D
:1000F00061E00E94BB0082E061E0F1CF81E060E05E
:1001000002C081E061E00E94BB0082E060E009C0C3
:1001100081E060E002C081E061E00E94BB0082E01B
:1001200061E00E94BB0083E061E00E94BB0084E0CC
:1001300060E011C081E060E002C081E061E00E9407
:10014000BB0082E060E00E94BB0083E060E00E94B0
:10015000BB0084E061E00E94BB001F91089588E02D
:1001600060E00E94BB0008959FEF9ABB80EF87BBC1
:1001700094BB91BB0895982F8152883018F5E92FD0
:10018000F0E0613079F44BB328E230E02E1B3F0BF6
:1001900081E090E002C0880F991F2A95E2F7482B72
:1001A0004BBB08954BB328E230E02E1B3F0B81E0A0
:1001B00090E002C0880F991F2A95E2F7809584236A
:1001C0008BBB08959930E8F4E92FF0E0613061F4D9
:1001D00028B3319781E090E002C0880F991FEA951B
:1001E000E2F7282B28BB089528B3319781E090E0EF
:1001F00002C0880F991FEA95E2F78095822388BB99
:100200000895892F86518830E8F4E92FF0E06130B5
:1002100061F425B3769781E090E002C0880F991FC2
:10022000EA95E2F7282B25BB089525B3769781E060
:1002300090E002C0880F991FEA95E2F7809582232B
:1002400085BB0895892F8E508830E0F4E92FF0E0C7
:10025000613061F422B33E9781E090E002C0880FE4
:10026000991FEA95E2F7282B22BB089522B33E9707
:1002700081E090E002C0880F991FEA95E2F780952F
:10028000822382BB0895482F8152883038F429B3E5
:1002900030E088E290E0841B91091BC0493030F4C3
:1002A00026B330E0842F90E0019713C0842F86514D
:1002B000883030F423B330E0842F90E0469709C0B3
:1002C000842F8E50883090F420B330E0842F90E05B
:1002D0000E9702C0359527958A95E2F720FF04C056
:1002E00081E08093600002C0109260008091600005
:0602F0000895F894FFCF11
:0202F600010005
:00000001FF
