:100000000C942A000C943F000C943F000C943F0089
:100010000C943F000C943F000C943F000C943F0064
:100020000C943F000C943F000C943F000C943F0054
:100030000C943F000C943F000C943F000C943F0044
:100040000C943F000C943F000C943F000C943F0034
:100050000C943F0011241FBECFE5D4E0DEBFCDBF1E
:1000600010E0A0E6B0E0E6E8F3E002C005900D92F3
:10007000A236B107D9F70E9407010C94C1010C9474
:10008000000088EF8ABB8FEF87BB84BB87EF81BB03
:100090000895982F8152883018F5E92FF0E06130EB
:1000A00079F44BB328E230E02E1B3F0B81E090E067
:1000B00002C0880F991F2A95E2F7482B4BBB089581
:1000C0004BB328E230E02E1B3F0B81E090E002C0F2
:1000D000880F991F2A95E2F7809584238BBB08959A
:1000E0009930E8F4E92FF0E0613061F428B33197FA
:1000F00081E090E002C0880F991FEA95E2F7282B73
:1001000028BB089528B3319781E090E002C0880FA2
:10011000991FEA95E2F78095822388BB0895892F7D
:1001200086518830E8F4E92FF0E0613061F425B3BE
:10013000769781E090E002C0880F991FEA95E2F778
:10014000282B25BB089525B3769781E090E002C067
:10015000880F991FEA95E2F78095822385BB089561
:10016000892F8E508830E0F4E92FF0E0613061F49F
:1001700022B33E9781E090E002C0880F991FEA9574
:10018000E2F7282B22BB089522B33E9781E090E04E
:1001900002C0880F991FEA95E2F78095822382BBFF
:1001A0000895482F8152883038F429B330E088E22E
:1001B00090E0841B91091BC0493030F426B330E035
:1001C000842F90E0019713C0842F8651883030F43B
:1001D00023B330E0842F90E0469709C0842F8E50DF
:1001E000883090F420B330E0842F90E00E9702C066
:1001F000359527958A95E2F720FF04C081E080932A
:10020000600002C0109260008091600008950F931A
:100210001F930E94410010E000E088E20E94D1009C
:1002200087E20E94D10086E20E94D10088E20E940B
:10023000D1008130F9F487E20E94D100813051F47D
:1002400087E20E94D1008130D9F3143008F096C0C3
:100250001F5F95C086E20E94D100813059F486E28A
:100260000E94D1008130D9F3112311F401E004C0C0
:10027000115001E01123F1F48DE160E00E9449008A
:100280008CE160E00E9449008BE160E00E9449003F
:100290008AE160E00E94490088E20E94D10081303A
:1002A00091F486E161E00E94490087E160E00E94EC
:1002B000490009C0113039F48DE161E00E94490024
:1002C0008CE160E008C01230B9F48DE161E00E9479
:1002D00049008CE161E00E9449008BE160E00E94EE
:1002E00049008AE160E00E94490088E20E94D10052
:1002F000813009F092CF1AC01330F1F48DE161E042
:100300000E9449008CE161E00E9449008BE161E0BC
:100310000E9449008AE160E00E94490088E20E9450
:10032000D100813009F079CF0023F9F486E161E052
:100330000E94490087E11EC0143009F06ECF8DE1A4
:1003400061E00E9449008CE161E00E9449008BE17C
:1003500061E00E9449008AE161E00E94490088E270
:100360000E94D100813009F058CF87E161E00E94FE
:10037000490086E160E00E9449004FCF14E000E0B0
:0603800099CFF894FFCFB5
:02038600010074
:00000001FF
